{
  "contractName": "Voting",
  "abi": [
    {
      "constant": true,
      "inputs": [
        {
          "name": "",
          "type": "bytes32"
        }
      ],
      "name": "votesReceived",
      "outputs": [
        {
          "name": "",
          "type": "uint8"
        }
      ],
      "payable": false,
      "stateMutability": "view",
      "type": "function"
    },
    {
      "constant": true,
      "inputs": [
        {
          "name": "",
          "type": "uint256"
        }
      ],
      "name": "candidateList",
      "outputs": [
        {
          "name": "",
          "type": "bytes32"
        }
      ],
      "payable": false,
      "stateMutability": "view",
      "type": "function"
    },
    {
      "inputs": [
        {
          "name": "_candidates",
          "type": "bytes32[]"
        }
      ],
      "payable": false,
      "stateMutability": "nonpayable",
      "type": "constructor"
    },
    {
      "constant": true,
      "inputs": [],
      "name": "getCandidateList",
      "outputs": [
        {
          "name": "",
          "type": "bytes32[]"
        }
      ],
      "payable": false,
      "stateMutability": "view",
      "type": "function"
    },
    {
      "constant": false,
      "inputs": [
        {
          "name": "_name",
          "type": "bytes32"
        }
      ],
      "name": "voteForCandidate",
      "outputs": [
        {
          "name": "",
          "type": "uint8"
        }
      ],
      "payable": false,
      "stateMutability": "nonpayable",
      "type": "function"
    },
    {
      "constant": true,
      "inputs": [
        {
          "name": "_name",
          "type": "bytes32"
        }
      ],
      "name": "validateCandidate",
      "outputs": [
        {
          "name": "",
          "type": "bool"
        }
      ],
      "payable": false,
      "stateMutability": "view",
      "type": "function"
    },
    {
      "constant": true,
      "inputs": [
        {
          "name": "name",
          "type": "bytes32"
        }
      ],
      "name": "totalVotesFor",
      "outputs": [
        {
          "name": "",
          "type": "uint8"
        }
      ],
      "payable": false,
      "stateMutability": "view",
      "type": "function"
    },
    {
      "constant": false,
      "inputs": [
        {
          "name": "_name",
          "type": "bytes32"
        }
      ],
      "name": "addCandidate",
      "outputs": [
        {
          "name": "",
          "type": "bool"
        }
      ],
      "payable": false,
      "stateMutability": "nonpayable",
      "type": "function"
    },
    {
      "constant": true,
      "inputs": [],
      "name": "candidateListLength",
      "outputs": [
        {
          "name": "",
          "type": "uint256"
        }
      ],
      "payable": false,
      "stateMutability": "view",
      "type": "function"
    }
  ],
  "bytecode": "0x608060405234801561001057600080fd5b506040516105ef3803806105ef833981018060405281019080805182019291905050508060019080519060200190610049929190610050565b50506100c8565b828054828255906000526020600020908101928215610092579160200282015b82811115610091578251829060001916905591602001919060010190610070565b5b50905061009f91906100a3565b5090565b6100c591905b808211156100c15760008160009055506001016100a9565b5090565b90565b610518806100d76000396000f30060806040526004361061008e576000357c0100000000000000000000000000000000000000000000000000000000900463ffffffff168063230d6ed8146100935780632a0678b0146100dc5780632f265cf7146101255780637021939f146101705780637a99d766146101bb578063b13c744b146101e6578063cc9ab2671461022f578063fdbc40061461027a575b600080fd5b34801561009f57600080fd5b506100c260048036038101908080356000191690602001909291905050506102e6565b604051808215151515815260200191505060405180910390f35b3480156100e857600080fd5b5061010b600480360381019080803560001916906020019092919050505061032a565b604051808215151515815260200191505060405180910390f35b34801561013157600080fd5b50610154600480360381019080803560001916906020019092919050505061038f565b604051808260ff1660ff16815260200191505060405180910390f35b34801561017c57600080fd5b5061019f60048036038101908080356000191690602001909291905050506103d4565b604051808260ff1660ff16815260200191505060405180910390f35b3480156101c757600080fd5b506101d06103f4565b6040518082815260200191505060405180910390f35b3480156101f257600080fd5b5061021160048036038101908080359060200190929190505050610401565b60405180826000191660001916815260200191505060405180910390f35b34801561023b57600080fd5b5061025e6004803603810190808035600019169060200190929190505050610424565b604051808260ff1660ff16815260200191505060405180910390f35b34801561028657600080fd5b5061028f610490565b6040518080602001828103825283818151815260200191508051906020019060200280838360005b838110156102d25780820151818401526020810190506102b7565b505050509050019250505060405180910390f35b600060018290806001815401808255809150509060018203906000526020600020016000909192909190915090600019169055506103238261032a565b9050919050565b600080600090505b6001805490508160ff16101561038457826000191660018260ff1681548110151561035957fe5b90600052602060002001546000191614156103775760019150610389565b8080600101915050610332565b600091505b50919050565b600061039a8261032a565b15156103a557600080fd5b600080836000191660001916815260200190815260200160002060009054906101000a900460ff169050919050565b60006020528060005260406000206000915054906101000a900460ff1681565b6000600180549050905090565b60018181548110151561041057fe5b906000526020600020016000915090505481565b600061042f8261032a565b151561043a57600080fd5b6001600080846000191660001916815260200190815260200160002060008282829054906101000a900460ff160192506101000a81548160ff021916908360ff1602179055506104898261038f565b9050919050565b606060018054806020026020016040519081016040528092919081815260200182805480156104e257602002820191906000526020600020905b815460001916815260200190600101908083116104ca575b50505050509050905600a165627a7a723058209113c8aa209d8b9587c22ffb75dc2150cc2bdb7162061992344567cfa3ecbb230029",
  "source": "pragma solidity ^0.4.17;\n\n\n\ncontract Voting {\n\n\n    mapping (bytes32 => uint8) public votesReceived;\n\n    bytes32[] public candidateList;\n\n\n    constructor(bytes32[] _candidates) public {\n\n        candidateList = _candidates;\n\n    }\n\n    \n\n    function getCandidateList() public view returns (bytes32[]){\n\n        return candidateList;\n\n    }\n\n\n\n    function voteForCandidate(bytes32 _name) public returns (uint8) {\n\n        require(validateCandidate(_name));\n\n        votesReceived[_name] += 1;\n\n        //return votesReceived[_name];\n\n        return totalVotesFor(_name);\n\n    }\n\n\n\n    function validateCandidate(bytes32 _name) view public returns (bool){\n\n        for (uint8 i = 0; i < candidateList.length; i++) {\n\n            if(candidateList[i] == _name){\n\n                return true;\n\n            }\n\n        }\n\n        return false;\n\n    }\n\n    \n\n    function totalVotesFor(bytes32 name) view public returns (uint8){\n\n        require(validateCandidate(name));\n\n        return votesReceived[name];\n\n    }\n\n\n\n    function addCandidate(bytes32 _name) public returns (bool) {\n\n        candidateList.push(_name);\n\n        return validateCandidate(_name);\n\n    }\n\n    \n\n    function candidateListLength() external view returns (uint) {\n\n        return candidateList.length;\n\n    }\n\n\n\n    \n\n}",
  "sourcePath": "/home/user/Ethereum-tests/voting-react/voting-truffle/contracts/Voting.sol",
  "compiler": {
    "name": "solc",
    "version": "0.4.23+commit.124ca40d.Emscripten.clang"
  },
  "schemaVersion": "2.0.0",
  "updatedAt": "2018-05-20T18:31:37.445Z"
}