{
  "contractName": "Voting",
  "abi": [
    {
      "constant": true,
      "inputs": [
        {
          "name": "",
          "type": "bytes32"
        }
      ],
      "name": "votesReceived",
      "outputs": [
        {
          "name": "",
          "type": "uint8"
        }
      ],
      "payable": false,
      "stateMutability": "view",
      "type": "function"
    },
    {
      "constant": true,
      "inputs": [
        {
          "name": "",
          "type": "uint256"
        }
      ],
      "name": "candidateList",
      "outputs": [
        {
          "name": "",
          "type": "bytes32"
        }
      ],
      "payable": false,
      "stateMutability": "view",
      "type": "function"
    },
    {
      "inputs": [
        {
          "name": "_candidates",
          "type": "bytes32[]"
        }
      ],
      "payable": false,
      "stateMutability": "nonpayable",
      "type": "constructor"
    },
    {
      "constant": false,
      "inputs": [
        {
          "name": "_name",
          "type": "bytes32"
        }
      ],
      "name": "voteForCandidate",
      "outputs": [
        {
          "name": "",
          "type": "uint8"
        }
      ],
      "payable": false,
      "stateMutability": "nonpayable",
      "type": "function"
    },
    {
      "constant": true,
      "inputs": [
        {
          "name": "_name",
          "type": "bytes32"
        }
      ],
      "name": "validateCandidate",
      "outputs": [
        {
          "name": "",
          "type": "bool"
        }
      ],
      "payable": false,
      "stateMutability": "view",
      "type": "function"
    },
    {
      "constant": true,
      "inputs": [
        {
          "name": "name",
          "type": "bytes32"
        }
      ],
      "name": "totalVotesFor",
      "outputs": [
        {
          "name": "",
          "type": "uint8"
        }
      ],
      "payable": false,
      "stateMutability": "view",
      "type": "function"
    },
    {
      "constant": false,
      "inputs": [
        {
          "name": "_name",
          "type": "bytes32"
        }
      ],
      "name": "addCandidate",
      "outputs": [
        {
          "name": "",
          "type": "bool"
        }
      ],
      "payable": false,
      "stateMutability": "nonpayable",
      "type": "function"
    },
    {
      "constant": true,
      "inputs": [],
      "name": "candidateListLength",
      "outputs": [
        {
          "name": "",
          "type": "uint256"
        }
      ],
      "payable": false,
      "stateMutability": "view",
      "type": "function"
    }
  ],
  "bytecode": "0x608060405234801561001057600080fd5b5060405161051c38038061051c833981018060405281019080805182019291905050508060019080519060200190610049929190610050565b50506100c8565b828054828255906000526020600020908101928215610092579160200282015b82811115610091578251829060001916905591602001919060010190610070565b5b50905061009f91906100a3565b5090565b6100c591905b808211156100c15760008160009055506001016100a9565b5090565b90565b610445806100d76000396000f300608060405260043610610083576000357c0100000000000000000000000000000000000000000000000000000000900463ffffffff168063230d6ed8146100885780632a0678b0146100d15780632f265cf71461011a5780637021939f146101655780637a99d766146101b0578063b13c744b146101db578063cc9ab26714610224575b600080fd5b34801561009457600080fd5b506100b7600480360381019080803560001916906020019092919050505061026f565b604051808215151515815260200191505060405180910390f35b3480156100dd57600080fd5b5061010060048036038101908080356000191690602001909291905050506102b3565b604051808215151515815260200191505060405180910390f35b34801561012657600080fd5b506101496004803603810190808035600019169060200190929190505050610318565b604051808260ff1660ff16815260200191505060405180910390f35b34801561017157600080fd5b50610194600480360381019080803560001916906020019092919050505061035d565b604051808260ff1660ff16815260200191505060405180910390f35b3480156101bc57600080fd5b506101c561037d565b6040518082815260200191505060405180910390f35b3480156101e757600080fd5b506102066004803603810190808035906020019092919050505061038a565b60405180826000191660001916815260200191505060405180910390f35b34801561023057600080fd5b5061025360048036038101908080356000191690602001909291905050506103ad565b604051808260ff1660ff16815260200191505060405180910390f35b600060018290806001815401808255809150509060018203906000526020600020016000909192909190915090600019169055506102ac826102b3565b9050919050565b600080600090505b6001805490508160ff16101561030d57826000191660018260ff168154811015156102e257fe5b90600052602060002001546000191614156103005760019150610312565b80806001019150506102bb565b600091505b50919050565b6000610323826102b3565b151561032e57600080fd5b600080836000191660001916815260200190815260200160002060009054906101000a900460ff169050919050565b60006020528060005260406000206000915054906101000a900460ff1681565b6000600180549050905090565b60018181548110151561039957fe5b906000526020600020016000915090505481565b60006103b8826102b3565b15156103c357600080fd5b6001600080846000191660001916815260200190815260200160002060008282829054906101000a900460ff160192506101000a81548160ff021916908360ff16021790555061041282610318565b90509190505600a165627a7a72305820e1eafa58f8a5a3d1cfcb92ebbd3828850fa5c7abfc42433932d3de8a4b0278210029",
  "source": "pragma solidity ^0.4.17;\n\ncontract Voting {\n    \n    mapping (bytes32 => uint8) public votesReceived;\n    bytes32[] public candidateList;\n\n    constructor(bytes32[] _candidates) public {\n        candidateList = _candidates;\n    }\n\n    function voteForCandidate(bytes32 _name) public returns (uint8) {\n        require(validateCandidate(_name));\n        votesReceived[_name] += 1;\n        //return votesReceived[_name];\n        return totalVotesFor(_name);\n    }\n\n    function validateCandidate(bytes32 _name) view public returns (bool){\n        for (uint8 i = 0; i < candidateList.length; i++) {\n            if(candidateList[i] == _name){\n                return true;\n            }\n        }\n        return false;\n    }\n    \n    function totalVotesFor(bytes32 name) view public returns (uint8){\n        require(validateCandidate(name));\n        return votesReceived[name];\n    }\n\n    function addCandidate(bytes32 _name) public returns (bool) {\n        candidateList.push(_name);\n        return validateCandidate(_name);\n    }\n    \n    function candidateListLength() external view returns (uint) {\n        return candidateList.length;\n    }\n}",
  "sourcePath": "/home/user/Ethereum-tests/voting-react/voting-eth/contracts/Voting.sol",
  "compiler": {
    "name": "solc",
    "version": "0.4.23+commit.124ca40d.Emscripten.clang"
  },
  "schemaVersion": "2.0.0",
  "updatedAt": "2018-05-20T15:29:40.888Z"
}